:100000000C9472000C9494000C9494000C94940042
:100010000C9494000C9494000C9494000C94940010
:100020000C9494000C9494000C9494000C94940000
:100030000C9494000C9496000C9494000C949400EE
:100040000C9494000C9494000C9494000C949400E0
:100050000C9494000C9494000C9494000C949400D0
:100060000C9494000C9494000C9494000C949400C0
:100070000C9494000C9494000C9494000C949400B0
:100080000C9494000C9494000C9494000C949400A0
:100090000C9494000C9494000C9494000C94940090
:1000A0000C9494000C9494000C9494000C94940080
:1000B0000C9494000C9494000C9494000C94940070
:1000C0000C9494000C9494000C9494000C94940060
:1000D0000C9494000C9494000C9494000C94940050
:1000E0000C94940011241FBECFEFD1E2DEBFCDBF30
:1000F00000E00CBF12E0A0E0B2E0E8E5FBE700E0C2
:100100000BBF02C007900D92A030B107D9F71BBEFC
:1001100012E0A0E0B2E001C01D92AB30B107E1F700
:100120000E943E3D0C94AA3D0C9400001F920F9239
:100130000FB60F9211248F9381E0809300028F916C
:100140000F900FBE0F901F901895DF93CF93CDB7F0
:10015000DEB728970FB6F894DEBF0FBECDBF2EE4F2
:1001600030E0629F602D1124680F70E0CB01817038
:1001700090708983CB0195958795817090708A8363
:10018000CB019595879595958795817090708B8318
:10019000CB019595879595958795959587958170D0
:1001A00090708C83CB0195958795959587959595BE
:1001B000879595958795817090708D83CB019595E6
:1001C0008795959587959595879595958795959517
:1001D0008795817090708E83CB01082E892F000C3B
:1001E000881F990B000C881F991F817090708F8356
:1001F000660F672F661F770B7195962F6887809122
:1002000000028823E1F31092000288988091000296
:100210008823E1F310920002FE0131969E01275FD0
:100220003F4F8081882321F1889A809100028823A2
:10023000E1F3109200023196E217F30791F7992348
:1002400019F18898809100028823E1F3109200024E
:10025000889A809100028823E1F310920002289688
:100260000FB6F894DEBF0FBECDBFCF91DF910895DA
:100270008898809100028823E1F310920002319661
:10028000E217F30771F6DBCF889A8091000288238A
:10029000E1F3DCCFDF93CF93CDB7DEB728970FB66E
:1002A000F894DEBF0FBECDBF20B121708EE490E088
:1002B000289F202D112430E0C9018170907089831E
:1002C000C90195958795817090708A83C90195952C
:1002D000879595958795817090708B83C9019595C9
:1002E00087959595879595958795817090708C8366
:1002F000C901959587959595879595958795959538
:100300008795817090708D833595279535952795C4
:10031000359527953595279535952795C901817090
:1003200090708E8335952795217030702F831886B5
:10033000809100028823E1F3109200028898809156
:1003400000028823E1F310920002BE016F5F7F4F2D
:10035000FB01AE01475F5F4F8081882311F40C944D
:10036000511E889A809100028823E1F310920002C6
:100370003196E417F50781F7889A80910002882367
:10038000E1F310920002889A809100028823E1F341
:100390001092000280B190E09695879581709070E0
:1003A0002EE430E0FC01E29FC001E39F900DF29F3C
:1003B000900D11248F5F282F30E0C901817090705B
:1003C0008983C90195958795817090708A83C90149
:1003D0009595879595958795817090708B83C901C8
:1003E000959587959595879595958795817090704A
:1003F0008C83C90195958795959587959595879552
:1004000095958795817090708D8335952795359555
:100410002795359527953595279535952795C901C4
:10042000817090708E8335952795217030702F8361
:100430001886809100028823E1F3109200028898C8
:10044000809100028823E1F310920002FB01808179
:10045000882311F40C94421E889A8091000288230C
:10046000E1F3109200023196E417F50781F7889ABC
:10047000809100028823E1F310920002889A809113
:1004800000028823E1F31092000280B190E096957B
:10049000879596958795817090702EE430E0FC01E9
:1004A000E29FC001E39F900DF29F900D11248E5F9B
:1004B000282F30E0C901817090708983C90195951A
:1004C0008795817090708A83C901959587959595D8
:1004D0008795817090708B83C901959587959595C7
:1004E000879595958795817090708C83C9019595B6
:1004F000879595958795959587959595879581701D
:1005000090708D8335952795359527953595279549
:100510003595279535952795C901817090708E8303
:1005200035952795217030702F83188680910002B1
:100530008823E1F3109200028898809100028823BA
:10054000E1F310920002FB018081882311F40C94E6
:10055000331E889A809100028823E1F310920002F2
:100560003196E417F50781F7889A80910002882375
:10057000E1F310920002889A809100028823E1F34F
:100580001092000280B190E0969587959695879598
:1005900096958795817090702EE430E0FC01E29F83
:1005A000C001E39F900DF29F900D11248D5F282FC5
:1005B00030E0C901817090708983C9019595879554
:1005C000817090708A83C9019595879595958795D7
:1005D000817090708B83C9019595879595958795C6
:1005E00095958795817090708C83C90195958795B5
:1005F0009595879595958795959587958170907038
:100600008D8335952795359527953595279535957E
:10061000279535952795C901817090708E83359502
:100620002795217030702F831886809100028823CF
:10063000E1F3109200028898809100028823E1F390
:1006400010920002FB018081882311F40C94241E77
:10065000889A809100028823E1F31092000231967B
:10066000E417F50781F7889A809100028823E1F367
:1006700010920002889A809100028823E1F3109280
:10068000000280B190E0929582958F7089279F70CB
:100690008927817090702EE430E0FC01E29FC00158
:1006A000E39F900DF29F900D11248C5F282F30E076
:1006B000C901817090708983C90195958795817072
:1006C00090708A83C90195958795959587958170D6
:1006D00090708B83C901959587959595879595958C
:1006E0008795817090708C83C901959587959595B4
:1006F00087959595879595958795817090708D8351
:1007000035952795359527953595279535952795D1
:1007100035952795C901817090708E833595279501
:10072000217030702F831886809100028823E1F3B6
:10073000109200028898809100028823E1F31092C1
:100740000002FB018081882311F40C94151E889A05
:10075000809100028823E1F3109200023196E417A1
:10076000F50781F7889A809100028823E1F31092BF
:100770000002889A809100028823E1F3109200021F
:1007800080B190E096958795929582958F70892794
:100790009F708927817090702EE430E0FC01E29F09
:1007A000C001E39F900DF29F900D11248B5F282FC5
:1007B00030E0C901817090708983C9019595879552
:1007C000817090708A83C9019595879595958795D5
:1007D000817090708B83C9019595879595958795C4
:1007E00095958795817090708C83C90195958795B3
:1007F0009595879595958795959587958170907036
:100800008D8335952795359527953595279535957C
:10081000279535952795C901817090708E83359500
:100820002795217030702F831886809100028823CD
:10083000E1F3109200028898809100028823E1F38E
:1008400010920002FB018081882311F40C94061E93
:10085000889A809100028823E1F310920002319679
:10086000E417F50781F7889A809100028823E1F365
:1008700010920002889A809100028823E1F310927E
:10088000000280B190E00024880F991F001C880F9F
:10089000991F001C892F902D817090702EE430E0FC
:1008A000FC01E29FC001E39F900DF29F900D112487
:1008B0008A5F282F30E0C901817090708983C90157
:1008C00095958795817090708A83C90195958795D4
:1008D00095958795817090708B83C90195958795C3
:1008E0009595879595958795817090708C83C901B2
:1008F00095958795959587959595879595958795E0
:10090000817090708D833595279535952795359510
:1009100027953595279535952795C9018170907054
:100920008E8335952795217030702F83188680919E
:1009300000028823E1F3109200028898809100025F
:100940008823E1F310920002FB018081882311F4D7
:100950000C94F71D889A809100028823E1F310928D
:1009600000023196E417F50781F7889A809100021A
:100970008823E1F310920002889A80910002882374
:10098000E1F31092000280B1992787FD90958827A6
:10099000990F881F99272EE430E0FC01E29FC001E7
:1009A000E39F900DF29F900D1124895F282F30E076
:1009B000C901817090708983C9019595879581706F
:1009C00090708A83C90195958795959587958170D3
:1009D00090708B83C9019595879595958795959589
:1009E0008795817090708C83C901959587959595B1
:1009F00087959595879595958795817090708D834E
:100A000035952795359527953595279535952795CE
:100A100035952795C901817090708E8335952795FE
:100A2000217030702F831886809100028823E1F3B3
:100A3000109200028898809100028823E1F31092BE
:100A40000002FB018081882311F40C94E81D889A30
:100A5000809100028823E1F3109200023196E4179E
:100A6000F50781F7889A809100028823E1F31092BC
:100A70000002889A809100028823E1F3109200021C
:100A800023B121708EE490E0289F202D1124285F4F
:100A900030E0C901817090708983C901959587956F
:100AA000817090708A83C9019595879595958795F2
:100AB000817090708B83C9019595879595958795E1
:100AC00095958795817090708C83C90195958795D0
:100AD0009595879595958795959587958170907053
:100AE0008D8335952795359527953595279535959A
:100AF000279535952795C901817090708E8335951E
:100B00002795217030702F831886809100028823EA
:100B1000E1F3109200028898809100028823E1F3AB
:100B200010920002FB018081882311F40C94D91DDE
:100B3000889A809100028823E1F310920002319696
:100B4000E417F50781F7889A809100028823E1F382
:100B500010920002889A809100028823E1F310929B
:100B6000000283B190E096958795817090702EE495
:100B700030E0FC01E29FC001E39F900DF29F900DD9
:100B80001124875F282F30E0C9018170907089831C
:100B9000C90195958795817090708A83C901959553
:100BA000879595958795817090708B83C9019595F0
:100BB00087959595879595958795817090708C838D
:100BC000C90195958795959587959595879595955F
:100BD0008795817090708D833595279535952795EC
:100BE000359527953595279535952795C9018170B8
:100BF00090708E8335952795217030702F831886DD
:100C0000809100028823E1F310920002889880917D
:100C100000028823E1F310920002FB018081882307
:100C200011F40C94CA1D889A809100028823E1F384
:100C3000109200023196E417F50781F7889A8091A7
:100C400000028823E1F310920002889A809100024A
:100C50008823E1F31092000283B190E09695879586
:100C600096958795817090702EE430E0FC01E29FAC
:100C7000C001E39F900DF29F900D1124865F282FF5
:100C800030E0C901817090708983C901959587957D
:100C9000817090708A83C901959587959595879500
:100CA000817090708B83C9019595879595958795EF
:100CB00095958795817090708C83C90195958795DE
:100CC0009595879595958795959587958170907061
:100CD0008D833595279535952795359527953595A8
:100CE000279535952795C901817090708E8335952C
:100CF0002795217030702F831886809100028823F9
:100D0000E1F3109200028898809100028823E1F3B9
:100D100010920002FB018081882311F40C94BB1D0A
:100D2000889A809100028823E1F3109200023196A4
:100D3000E417F50781F7889A809100028823E1F390
:100D400010920002889A809100028823E1F31092A9
:100D5000000283B190E09695879596958795969534
:100D60008795817090702EE430E0FC01E29FC00115
:100D7000E39F900DF29F900D1124855F282F30E0A6
:100D8000C901817090708983C9019595879581709B
:100D900090708A83C90195958795959587958170FF
:100DA00090708B83C90195958795959587959595B5
:100DB0008795817090708C83C901959587959595DD
:100DC00087959595879595958795817090708D837A
:100DD00035952795359527953595279535952795FB
:100DE00035952795C901817090708E83359527952B
:100DF000217030702F831886809100028823E1F3E0
:100E0000109200028898809100028823E1F31092EA
:100E10000002FB018081882311F40C94AC1D889A98
:100E2000809100028823E1F3109200023196E417CA
:100E3000F50781F7889A809100028823E1F31092E8
:100E40000002889A809100028823E1F31092000248
:100E500083B190E0929582958F7089279F70892742
:100E6000817090702EE430E0FC01E29FC001E39FAE
:100E7000900DF29F900D1124845F282F30E0C9015E
:100E8000817090708983C901959587958170907064
:100E90008A83C901959587959595879581709070FE
:100EA0008B83C90195958795959587959595879598
:100EB000817090708C83C9019595879595958795DC
:100EC0009595879595958795817090708D833595CB
:100ED00027953595279535952795359527953595FA
:100EE0002795C901817090708E8335952795217063
:100EF00030702F831886809100028823E1F31092CE
:100F000000028898809100028823E1F31092000289
:100F1000FB018081882311F40C949D1D889A809197
:100F200000028823E1F3109200023196E417F507DE
:100F300081F7889A809100028823E1F310920002E1
:100F4000889A809100028823E1F31092000283B115
:100F500090E096958795929582958F7089279F70DE
:100F60008927817090702EE430E0FC01E29FC0017F
:100F7000E39F900DF29F900D1124835F282F30E0A6
:100F8000C901817090708983C90195958795817099
:100F900090708A83C90195958795959587958170FD
:100FA00090708B83C90195958795959587959595B3
:100FB0008795817090708C83C901959587959595DB
:100FC00087959595879595958795817090708D8378
:100FD00035952795359527953595279535952795F9
:100FE00035952795C901817090708E833595279529
:100FF000217030702F831886809100028823E1F3DE
:10100000109200028898809100028823E1F31092E8
:101010000002FB018081882311F40C948E1D889AB4
:10102000809100028823E1F3109200023196E417C8
:10103000F50781F7889A809100028823E1F31092E6
:101040000002889A809100028823E1F31092000246
:1010500083B190E00024880F991F001C880F991F0E
:10106000001C892F902D817090702EE430E0FC01DF
:10107000E29FC001E39F900DF29F900D1124825FCB
:10108000282F30E0C901817090708983C90195953E
:101090008795817090708A83C901959587959595FC
:1010A0008795817090708B83C901959587959595EB
:1010B000879595958795817090708C83C9019595DA
:1010C0008795959587959595879595958795817041
:1010D00090708D833595279535952795359527956E
:1010E0003595279535952795C901817090708E8328
:1010F00035952795217030702F83188680910002D6
:101100008823E1F3109200028898809100028823DE
:10111000E1F310920002FB018081882311F40C940A
:101120007F1D889A809100028823E1F310920002CB
:101130003196E417F50781F7889A80910002882399
:10114000E1F310920002889A809100028823E1F373
:101150001092000283B1992787FD90958827990FF7
:10116000881F99272EE430E0FC01E29FC001E39F35
:10117000900DF29F900D1124815F282F30E0C9015E
:10118000817090708983C901959587958170907061
:101190008A83C901959587959595879581709070FB
:1011A0008B83C90195958795959587959595879595
:1011B000817090708C83C9019595879595958795D9
:1011C0009595879595958795817090708D833595C8
:1011D00027953595279535952795359527953595F7
:1011E0002795C901817090708E8335952795217060
:1011F00030702F831886809100028823E1F31092CB
:1012000000028898809100028823E1F31092000286
:10121000FB018081882311F40C94701D889A8091C1
:1012200000028823E1F3109200023196E417F507DB
:1012300081F7889A809100028823E1F310920002DE
:10124000889A809100028823E1F31092000226B16F
:1012500021708EE490E0289F202D1124205F30E043
:10126000C901817090708983C901959587958170B6
:1012700090708A83C901959587959595879581701A
:1012800090708B83C90195958795959587959595D0
:101290008795817090708C83C901959587959595F8
:1012A00087959595879595958795817090708D8395
:1012B0003595279535952795359527953595279516
:1012C00035952795C901817090708E833595279546
:1012D000217030702F831886809100028823E1F3FB
:1012E000109200028898809100028823E1F3109206
:1012F0000002FB018081882311F40C94611D889AFF
:10130000809100028823E1F3109200023196E417E5
:10131000F50781F7889A809100028823E1F3109203
:101320000002889A809100028823E1F31092000263
:1013300086B190E096958795817090702EE430E0AC
:10134000FC01E29FC001E39F900DF29F900D1124DC
:101350008F5E282F30E0C901817090708983C901A8
:1013600095958795817090708A83C9019595879529
:1013700095958795817090708B83C9019595879518
:101380009595879595958795817090708C83C90107
:101390009595879595958795959587959595879535
:1013A000817090708D833595279535952795359566
:1013B00027953595279535952795C90181709070AA
:1013C0008E8335952795217030702F8318868091F4
:1013D00000028823E1F310920002889880910002B5
:1013E0008823E1F310920002FB018081882311F42D
:1013F0000C94521D889A809100028823E1F3109288
:1014000000023196E417F50781F7889A809100026F
:101410008823E1F310920002889A809100028823C9
:10142000E1F31092000286B190E09695879596952B
:101430008795817090702EE430E0FC01E29FC0013E
:10144000E39F900DF29F900D11248E5E282F30E0C7
:10145000C901817090708983C901959587958170C4
:1014600090708A83C9019595879595958795817028
:1014700090708B83C90195958795959587959595DE
:101480008795817090708C83C90195958795959506
:1014900087959595879595958795817090708D83A3
:1014A0003595279535952795359527953595279524
:1014B00035952795C901817090708E833595279554
:1014C000217030702F831886809100028823E1F309
:1014D000109200028898809100028823E1F3109214
:1014E0000002FB018081882311F40C94431D889A2B
:1014F000809100028823E1F3109200023196E417F4
:10150000F50781F7889A809100028823E1F3109211
:101510000002889A809100028823E1F31092000271
:1015200086B190E09695879596958795969587953F
:10153000817090702EE430E0FC01E29FC001E39FD7
:10154000900DF29F900D11248D5E282F30E0C9017F
:10155000817090708983C90195958795817090708D
:101560008A83C90195958795959587958170907027
:101570008B83C901959587959595879595958795C1
:10158000817090708C83C901959587959595879505
:101590009595879595958795817090708D833595F4
:1015A0002795359527953595279535952795359523
:1015B0002795C901817090708E833595279521708C
:1015C00030702F831886809100028823E1F31092F7
:1015D00000028898809100028823E1F310920002B3
:1015E000FB018081882311F40C94341D889A80912A
:1015F00000028823E1F3109200023196E417F50708
:1016000081F7889A809100028823E1F3109200020A
:10161000889A809100028823E1F31092000286B13B
:1016200090E0929582958F7089279F7089278170AD
:1016300090702EE430E0FC01E29FC001E39F900D2A
:10164000F29F900D11248C5E282F30E0C90181702B
:1016500090708983C90195958795817090708A8370
:10166000C9019595879595958795817090708B8325
:10167000C9019595879595958795959587958170DD
:1016800090708C83C90195958795959587959595CB
:10169000879595958795817090708D833595279561
:1016A0003595279535952795359527953595279522
:1016B000C901817090708E833595279521703070A7
:1016C0002F831886809100028823E1F31092000294
:1016D0008898809100028823E1F310920002FB01B8
:1016E0008081882311F40C94251D889A8091000232
:1016F0008823E1F3109200023196E417F50781F791
:10170000889A809100028823E1F310920002889A5F
:10171000809100028823E1F31092000286B190E0EC
:1017200096958795929582958F7089279F708927C6
:10173000817090702EE430E0FC01E29FC001E39FD5
:10174000900DF29F900D11248B5E282F30E0C9017F
:10175000817090708983C90195958795817090708B
:101760008A83C90195958795959587958170907025
:101770008B83C901959587959595879595958795BF
:10178000817090708C83C901959587959595879503
:101790009595879595958795817090708D833595F2
:1017A0002795359527953595279535952795359521
:1017B0002795C901817090708E833595279521708A
:1017C00030702F831886809100028823E1F31092F5
:1017D00000028898809100028823E1F310920002B1
:1017E000FB018081882311F40C94161D889A809146
:1017F00000028823E1F3109200023196E417F50706
:1018000081F7889A809100028823E1F31092000208
:10181000889A809100028823E1F31092000286B139
:1018200090E00024880F991F001C880F991F001C4E
:10183000892F902D817090702EE430E0FC01E29FA2
:10184000C001E39F900DF29F900D11248A5E282F16
:1018500030E0C901817090708983C90195958795A1
:10186000817090708A83C901959587959595879524
:10187000817090708B83C901959587959595879513
:1018800095958795817090708C83C9019595879502
:101890009595879595958795959587958170907085
:1018A0008D833595279535952795359527953595CC
:1018B000279535952795C901817090708E83359550
:1018C0002795217030702F8318868091000288231D
:1018D000E1F3109200028898809100028823E1F3DE
:1018E00010920002FB018081882311F40C94071DE3
:1018F000889A809100028823E1F3109200023196C9
:10190000E417F50781F7889A809100028823E1F3B4
:1019100010920002889A809100028823E1F31092CD
:10192000000286B1992787FD90958827990F881F17
:1019300099272EE430E0FC01E29FC001E39F900D67
:10194000F29F900D1124895E282F30E0C90181702B
:1019500090708983C90195958795817090708A836D
:10196000C9019595879595958795817090708B8322
:10197000C9019595879595958795959587958170DA
:1019800090708C83C90195958795959587959595C8
:10199000879595958795817090708D83359527955E
:1019A000359527953595279535952795359527951F
:1019B000C901817090708E833595279521703070A4
:1019C0002F831886809100028823E1F31092000291
:1019D0008898809100028823E1F310920002FB01B5
:1019E0008081882311F40C94F81C889A809100025D
:1019F0008823E1F3109200023196E417F50781F78E
:101A0000889A809100028823E1F310920002889A5C
:101A1000809100028823E1F31092000229B1217025
:101A20008EE490E0289F202D1124285E30E0C9012B
:101A3000817090708983C9019595879581709070A8
:101A40008A83C90195958795959587958170907042
:101A50008B83C901959587959595879595958795DC
:101A6000817090708C83C901959587959595879520
:101A70009595879595958795817090708D8335950F
:101A8000279535952795359527953595279535953E
:101A90002795C901817090708E83359527952170A7
:101AA00030702F831886809100028823E1F3109212
:101AB00000028898809100028823E1F310920002CE
:101AC000FB018081882311F40C94E91C889A809191
:101AD00000028823E1F3109200023196E417F50723
:101AE00081F7889A809100028823E1F31092000226
:101AF000889A809100028823E1F31092000289B154
:101B000090E096958795817090702EE430E0FC010E
:101B1000E29FC001E39F900DF29F900D1124875E1C
:101B2000282F30E0C901817090708983C901959593
:101B30008795817090708A83C90195958795959551
:101B40008795817090708B83C90195958795959540
:101B5000879595958795817090708C83C90195952F
:101B60008795959587959595879595958795817096
:101B700090708D83359527953595279535952795C3
:101B80003595279535952795C901817090708E837D
:101B900035952795217030702F831886809100022B
:101BA0008823E1F310920002889880910002882334
:101BB000E1F310920002FB018081882311F40C9460
:101BC000DA1C889A809100028823E1F310920002C7
:101BD0003196E417F50781F7889A809100028823EF
:101BE000E1F310920002889A809100028823E1F3C9
:101BF0001092000289B190E0969587959695879509
:101C0000817090702EE430E0FC01E29FC001E39F00
:101C1000900DF29F900D1124865E282F30E0C901AF
:101C2000817090708983C9019595879581709070B6
:101C30008A83C90195958795959587958170907050
:101C40008B83C901959587959595879595958795EA
:101C5000817090708C83C90195958795959587952E
:101C60009595879595958795817090708D8335951D
:101C7000279535952795359527953595279535954C
:101C80002795C901817090708E83359527952170B5
:101C900030702F831886809100028823E1F3109220
:101CA00000028898809100028823E1F310920002DC
:101CB000FB018081882311F40C94CB1C889A8091BD
:101CC00000028823E1F3109200023196E417F50731
:101CD00081F7889A809100028823E1F31092000234
:101CE000889A809100028823E1F31092000289B162
:101CF00090E09695879596958795969587958170AE
:101D000090702EE430E0FC01E29FC001E39F900D53
:101D1000F29F900D1124855E282F30E0C90181705B
:101D200090708983C90195958795817090708A8399
:101D3000C9019595879595958795817090708B834E
:101D4000C901959587959595879595958795817006
:101D500090708C83C90195958795959587959595F4
:101D6000879595958795817090708D83359527958A
:101D7000359527953595279535952795359527954B
:101D8000C901817090708E833595279521703070D0
:101D90002F831886809100028823E1F310920002BD
:101DA0008898809100028823E1F310920002FB01E1
:101DB0008081882311F40C94BC1C889A80910002C5
:101DC0008823E1F3109200023196E417F50781F7BA
:101DD000889A809100028823E1F310920002889A89
:101DE000809100028823E1F31092000289B190E013
:101DF000929582958F7089279F7089278170907046
:101E00002EE430E0FC01E29FC001E39F900DF29FC1
:101E1000900D1124845E282F30E0C90181709070EC
:101E20008983C90195958795817090708A83C901CE
:101E30009595879595958795817090708B83C9014D
:101E400095958795959587959595879581709070CF
:101E50008C83C901959587959595879595958795D7
:101E600095958795817090708D83359527953595DB
:101E70002795359527953595279535952795C9014A
:101E8000817090708E8335952795217030702F83E7
:101E90001886809100028823E1F31092000288984E
:101EA000809100028823E1F310920002FB018081FF
:101EB000882311F40C94AD1C889A80910002882329
:101EC000E1F3109200023196E417F50781F7889A42
:101ED000809100028823E1F310920002889A809199
:101EE00000028823E1F31092000289B190E09695F8
:101EF0008795929582958F7089279F708927817029
:101F000090702EE430E0FC01E29FC001E39F900D51
:101F1000F29F900D1124835E282F30E0C90181705B
:101F200090708983C90195958795817090708A8397
:101F3000C9019595879595958795817090708B834C
:101F4000C901959587959595879595958795817004
:101F500090708C83C90195958795959587959595F2
:101F6000879595958795817090708D833595279588
:101F70003595279535952795359527953595279549
:101F8000C901817090708E833595279521703070CE
:101F90002F831886809100028823E1F310920002BB
:101FA0008898809100028823E1F310920002FB01DF
:101FB0008081882311F40C949E1C889A80910002E1
:101FC0008823E1F3109200023196E417F50781F7B8
:101FD000889A809100028823E1F310920002889A87
:101FE000809100028823E1F31092000289B190E011
:101FF0000024880F991F001C880F991F001C892F2F
:10200000902D817090702EE430E0FC01E29FC001C1
:10201000E39F900DF29F900D1124825E282F30E0F7
:10202000C901817090708983C901959587958170E8
:1020300090708A83C901959587959595879581704C
:1020400090708B83C9019595879595958795959502
:102050008795817090708C83C9019595879595952A
:1020600087959595879595958795817090708D83C7
:102070003595279535952795359527953595279548
:1020800035952795C901817090708E833595279578
:10209000217030702F831886809100028823E1F32D
:1020A000109200028898809100028823E1F3109238
:1020B0000002FB018081882311F40C948F1C889A04
:1020C000809100028823E1F3109200023196E41718
:1020D000F50781F7889A809100028823E1F3109236
:1020E0000002889A809100028823E1F31092000296
:1020F00089B1992787FD90958827990F881F99277F
:102100002EE430E0FC01E29FC001E39F900DF29FBE
:10211000900D1124815E282F30E0C90181709070EC
:102120008983C90195958795817090708A83C901CB
:102130009595879595958795817090708B83C9014A
:1021400095958795959587959595879581709070CC
:102150008C83C901959587959595879595958795D4
:1021600095958795817090708D83359527953595D8
:102170002795359527953595279535952795C90147
:10218000817090708E8335952795217030702F83E4
:102190001886809100028823E1F31092000288984B
:1021A000809100028823E1F310920002FB018081FC
:1021B000882311F40C94801C889A80910002882353
:1021C000E1F3109200023196E417F50781F7889A3F
:1021D000809100028823E1F310920002889A809196
:1021E00000028823E1F3109200022CB121708EE4EA
:1021F00090E0289F202D1124205E30E0C9018170DD
:1022000090708983C90195958795817090708A83B4
:10221000C9019595879595958795817090708B8369
:10222000C901959587959595879595958795817021
:1022300090708C83C901959587959595879595950F
:10224000879595958795817090708D8335952795A5
:102250003595279535952795359527953595279566
:10226000C901817090708E833595279521703070EB
:102270002F831886809100028823E1F310920002D8
:102280008898809100028823E1F310920002FB01FC
:102290008081882311F40C94711C889A809100022B
:1022A0008823E1F3109200023196E417F50781F7D5
:1022B000889A809100028823E1F310920002889AA4
:1022C000809100028823E1F3109200028CB190E02B
:1022D00096958795817090702EE430E0FC01E29F26
:1022E000C001E39F900DF29F900D11248F5D282F68
:1022F00030E0C901817090708983C90195958795F7
:10230000817090708A83C901959587959595879579
:10231000817090708B83C901959587959595879568
:1023200095958795817090708C83C9019595879557
:1023300095958795959587959595879581709070DA
:102340008D83359527953595279535952795359521
:10235000279535952795C901817090708E833595A5
:102360002795217030702F83188680910002882372
:10237000E1F3109200028898809100028823E1F333
:1023800010920002FB018081882311F40C94621CDE
:10239000889A809100028823E1F31092000231961E
:1023A000E417F50781F7889A809100028823E1F30A
:1023B00010920002889A809100028823E1F3109223
:1023C00000028CB190E096958795969587958170DF
:1023D00090702EE430E0FC01E29FC001E39F900D7D
:1023E000F29F900D11248E5D282F30E0C90181707D
:1023F00090708983C90195958795817090708A83C3
:10240000C9019595879595958795817090708B8377
:10241000C90195958795959587959595879581702F
:1024200090708C83C901959587959595879595951D
:10243000879595958795817090708D8335952795B3
:102440003595279535952795359527953595279574
:10245000C901817090708E833595279521703070F9
:102460002F831886809100028823E1F310920002E6
:102470008898809100028823E1F310920002FB010A
:102480008081882311F40C94531C889A8091000257
:102490008823E1F3109200023196E417F50781F7E3
:1024A000889A809100028823E1F310920002889AB2
:1024B000809100028823E1F3109200028CB190E039
:1024C0009695879596958795969587958170907046
:1024D0002EE430E0FC01E29FC001E39F900DF29FEB
:1024E000900D11248D5D282F30E0C901817090700E
:1024F0008983C90195958795817090708A83C901F8
:102500009595879595958795817090708B83C90176
:1025100095958795959587959595879581709070F8
:102520008C83C90195958795959587959595879500
:1025300095958795817090708D8335952795359504
:102540002795359527953595279535952795C90173
:10255000817090708E8335952795217030702F8310
:102560001886809100028823E1F310920002889877
:10257000809100028823E1F310920002FB01808128
:10258000882311F40C94441C889A809100028823BB
:10259000E1F3109200023196E417F50781F7889A6B
:1025A000809100028823E1F310920002889A8091C2
:1025B00000028823E1F3109200028CB190E0929522
:1025C00082958F7089279F708927817090702EE483
:1025D00030E0FC01E29FC001E39F900DF29F900D5F
:1025E00011248C5D282F30E0C9018170907089839F
:1025F000C90195958795817090708A83C9019595D9
:10260000879595958795817090708B83C901959575
:1026100087959595879595958795817090708C8312
:10262000C9019595879595958795959587959595E4
:102630008795817090708D83359527953595279571
:10264000359527953595279535952795C90181703D
:1026500090708E8335952795217030702F83188662
:10266000809100028823E1F3109200028898809103
:1026700000028823E1F310920002FB01808188238D
:1026800011F40C94351C889A809100028823E1F3A0
:10269000109200023196E417F50781F7889A80912D
:1026A00000028823E1F310920002889A80910002D0
:1026B0008823E1F3109200028CB190E09695879503
:1026C000929582958F7089279F708927817090706D
:1026D0002EE430E0FC01E29FC001E39F900DF29FE9
:1026E000900D11248B5D282F30E0C901817090700E
:1026F0008983C90195958795817090708A83C901F6
:102700009595879595958795817090708B83C90174
:1027100095958795959587959595879581709070F6
:102720008C83C901959587959595879595958795FE
:1027300095958795817090708D8335952795359502
:102740002795359527953595279535952795C90171
:10275000817090708E8335952795217030702F830E
:102760001886809100028823E1F310920002889875
:10277000809100028823E1F310920002FB01808126
:10278000882311F40C94261C889A809100028823D7
:10279000E1F3109200023196E417F50781F7889A69
:1027A000809100028823E1F310920002889A8091C0
:1027B00000028823E1F3109200028CB190E0002423
:1027C000880F991F001C880F991F001C892F902DBE
:1027D000817090702EE430E0FC01E29FC001E39F25
:1027E000900DF29F900D11248A5D282F30E0C901D1
:1027F000817090708983C9019595879581709070DB
:102800008A83C90195958795959587958170907074
:102810008B83C9019595879595958795959587950E
:10282000817090708C83C901959587959595879552
:102830009595879595958795817090708D83359541
:102840002795359527953595279535952795359570
:102850002795C901817090708E83359527952170D9
:1028600030702F831886809100028823E1F3109244
:1028700000028898809100028823E1F31092000200
:10288000FB018081882309F4D4C7889A80910002D3
:102890008823E1F3109200023196E417F50789F7D7
:1028A000889A809100028823E1F310920002889AAE
:1028B000809100028823E1F3109200028CB19927E5
:1028C00087FD90958827990F881F99272EE430E07F
:1028D000FC01E29FC001E39F900DF29F900D112437
:1028E000895D282F30E0C901817090708983C9010A
:1028F00095958795817090708A83C9019595879584
:1029000095958795817090708B83C9019595879572
:102910009595879595958795817090708C83C90161
:10292000959587959595879595958795959587958F
:10293000817090708D8335952795359527953595C0
:1029400027953595279535952795C9018170907004
:102950008E8335952795217030702F83188680914E
:1029600000028823E1F3109200028898809100020F
:102970008823E1F310920002FB018081882309F48F
:102980004BC7889A809100028823E1F310920002DD
:102990003196E417F50789F7889A80910002882319
:1029A000E1F310920002889A809100028823E1F3FB
:1029B000109200022091000121708EE490E0289F87
:1029C000202D1124285D30E0C90181709070898329
:1029D000C90195958795817090708A83C9019595F5
:1029E000879595958795817090708B83C901959592
:1029F00087959595879595958795817090708C832F
:102A0000C901959587959595879595958795959500
:102A10008795817090708D8335952795359527958D
:102A2000359527953595279535952795C901817059
:102A300090708E8335952795217030702F8318867E
:102A4000809100028823E1F310920002889880911F
:102A500000028823E1F310920002FB0180818823A9
:102A600009F4CDC6889A809100028823E1F3109280
:102A700000023196E417F50789F7889A80910002E1
:102A80008823E1F310920002889A80910002882343
:102A9000E1F3109200028091000190E096958795F5
:102AA000817090702EE430E0FC01E29FC001E39F52
:102AB000900DF29F900D1124875D282F30E0C90101
:102AC000817090708983C901959587958170907008
:102AD0008A83C901959587959595879581709070A2
:102AE0008B83C9019595879595958795959587953C
:102AF000817090708C83C901959587959595879580
:102B00009595879595958795817090708D8335956E
:102B1000279535952795359527953595279535959D
:102B20002795C901817090708E8335952795217006
:102B300030702F831886809100028823E1F3109271
:102B400000028898809100028823E1F3109200022D
:102B5000FB018081882309F445C6889A8091000290
:102B60008823E1F3109200023196E417F50789F704
:102B7000889A809100028823E1F310920002889ADB
:102B8000809100028823E1F31092000280910001FD
:102B900090E09695879596958795817090702EE434
:102BA00030E0FC01E29FC001E39F900DF29F900D89
:102BB0001124865D282F30E0C901817090708983CF
:102BC000C90195958795817090708A83C901959503
:102BD000879595958795817090708B83C9019595A0
:102BE00087959595879595958795817090708C833D
:102BF000C90195958795959587959595879595950F
:102C00008795817090708D8335952795359527959B
:102C1000359527953595279535952795C901817067
:102C200090708E8335952795217030702F8318868C
:102C3000809100028823E1F310920002889880912D
:102C400000028823E1F310920002FB0180818823B7
:102C500009F4BBC5889A809100028823E1F31092A1
:102C600000023196E417F50789F7889A80910002EF
:102C70008823E1F310920002889A80910002882351
:102C8000E1F3109200028091000190E09695879503
:102C90009695879596958795817090702EE430E093
:102CA000FC01E29FC001E39F900DF29F900D112463
:102CB000855D282F30E0C901817090708983C9013A
:102CC00095958795817090708A83C90195958795B0
:102CD00095958795817090708B83C901959587959F
:102CE0009595879595958795817090708C83C9018E
:102CF00095958795959587959595879595958795BC
:102D0000817090708D8335952795359527953595EC
:102D100027953595279535952795C9018170907030
:102D20008E8335952795217030702F83188680917A
:102D300000028823E1F3109200028898809100023B
:102D40008823E1F310920002FB018081882309F4BB
:102D50002FC5889A809100028823E1F31092000227
:102D60003196E417F50789F7889A80910002882345
:102D7000E1F310920002889A809100028823E1F327
:102D8000109200028091000190E0929582958F70E0
:102D900089279F708927817090702EE430E0FC01B4
:102DA000E29FC001E39F900DF29F900D1124845D7E
:102DB000282F30E0C901817090708983C9019595F1
:102DC0008795817090708A83C901959587959595AF
:102DD0008795817090708B83C9019595879595959E
:102DE000879595958795817090708C83C90195958D
:102DF00087959595879595958795959587958170F4
:102E000090708D8335952795359527953595279520
:102E10003595279535952795C901817090708E83DA
:102E200035952795217030702F8318868091000288
:102E30008823E1F310920002889880910002882391
:102E4000E1F310920002FB018081882309F4A3C4FE
:102E5000889A809100028823E1F310920002319653
:102E6000E417F50789F7889A809100028823E1F337
:102E700010920002889A809100028823E1F3109258
:102E800000028091000190E0969587959295829539
:102E90008F7089279F708927817090702EE430E0B1
:102EA000FC01E29FC001E39F900DF29F900D112461
:102EB000835D282F30E0C901817090708983C9013A
:102EC00095958795817090708A83C90195958795AE
:102ED00095958795817090708B83C901959587959D
:102EE0009595879595958795817090708C83C9018C
:102EF00095958795959587959595879595958795BA
:102F0000817090708D8335952795359527953595EA
:102F100027953595279535952795C901817090702E
:102F20008E8335952795217030702F831886809178
:102F300000028823E1F31092000288988091000239
:102F40008823E1F310920002FB018081882309F4B9
:102F500015C4889A809100028823E1F31092000240
:102F60003196E417F50789F7889A80910002882343
:102F7000E1F310920002889A809100028823E1F325
:102F8000109200028091000190E00024880F991FA8
:102F9000001C880F991F001C892F902D8170907044
:102FA0002EE430E0FC01E29FC001E39F900DF29F10
:102FB000900D1124825D282F30E0C901817090703E
:102FC0008983C90195958795817090708A83C9011D
:102FD0009595879595958795817090708B83C9019C
:102FE000959587959595879595958795817090701E
:102FF0008C83C90195958795959587959595879526
:1030000095958795817090708D8335952795359529
:103010002795359527953595279535952795C90198
:10302000817090708E8335952795217030702F8335
:103030001886809100028823E1F31092000288989C
:10304000809100028823E1F310920002FB0180814D
:10305000882309F486C3889A809100028823E1F3CB
:10306000109200023196E417F50789F7889A80914B
:1030700000028823E1F310920002889A80910002F6
:103080008823E1F31092000280910001992787FDC7
:1030900090958827990F881F99272EE430E0FC012E
:1030A000E29FC001E39F900DF29F900D1124815D7E
:1030B000282F30E0C901817090708983C9019595EE
:1030C0008795817090708A83C901959587959595AC
:1030D0008795817090708B83C9019595879595959B
:1030E000879595958795817090708C83C90195958A
:1030F00087959595879595958795959587958170F1
:1031000090708D833595279535952795359527951D
:103110003595279535952795C901817090708E83D7
:1031200035952795217030702F8318868091000285
:103130008823E1F31092000288988091000288238E
:10314000E1F310920002FB018081882309F4FCC2A4
:10315000889A809100028823E1F310920002319650
:10316000E417F50789F7889A809100028823E1F334
:1031700010920002889A809100028823E1F3109255
:1031800000022091030121708EE490E0289F202D01
:103190001124205D30E0C901817090708983C901DC
:1031A00095958795817090708A83C90195958795CB
:1031B00095958795817090708B83C90195958795BA
:1031C0009595879595958795817090708C83C901A9
:1031D00095958795959587959595879595958795D7
:1031E000817090708D833595279535952795359508
:1031F00027953595279535952795C901817090704C
:103200008E8335952795217030702F831886809195
:1032100000028823E1F31092000288988091000256
:103220008823E1F310920002FB018081882309F4D6
:103230007EC2889A809100028823E1F310920002F6
:103240003196E417F50789F7889A80910002882360
:10325000E1F310920002889A809100028823E1F342
:10326000109200028091030190E0969587958170FD
:1032700090702EE430E0FC01E29FC001E39F900DCE
:10328000F29F900D11248F5C282F30E0C9018170CE
:1032900090708983C90195958795817090708A8314
:1032A000C9019595879595958795817090708B83C9
:1032B000C901959587959595879595958795817081
:1032C00090708C83C901959587959595879595956F
:1032D000879595958795817090708D833595279505
:1032E00035952795359527953595279535952795C6
:1032F000C901817090708E8335952795217030704B
:103300002F831886809100028823E1F31092000237
:103310008898809100028823E1F310920002FB015B
:103320008081882309F4F6C1889A8091000288235D
:10333000E1F3109200023196E417F50789F7889AB5
:10334000809100028823E1F310920002889A809114
:1033500000028823E1F3109200028091030190E0C3
:103360009695879596958795817090702EE430E0BC
:10337000FC01E29FC001E39F900DF29F900D11248C
:103380008E5C282F30E0C901817090708983C9015B
:1033900095958795817090708A83C90195958795D9
:1033A00095958795817090708B83C90195958795C8
:1033B0009595879595958795817090708C83C901B7
:1033C00095958795959587959595879595958795E5
:1033D000817090708D83C901959587959595879596
:1033E000959587959595879595958795817090701A
:1033F0008E83C901082E892F000C881F990B000CA1
:10340000881F991F817090708F83220F232F221F96
:10341000330B3195922F2887809100028823E1F3A6
:10342000109200028898809100028823E1F31092A4
:103430000002FB018081882309F45FC1889A809192
:1034400000028823E1F3109200023196E417F50799
:1034500089F7992309F434C488988091000288235D
:10346000E1F310920002889A809100028823E1F330
:10347000109200026091030170E076956795769551
:10348000679576956795617083E30E94A5006091CA
:10349000030170E0729562956F7067277F706727F0
:1034A000617084E30E94A5006091030170E076954D
:1034B0006795729562956F7067277F706727617057
:1034C00085E30E94A5006091030170E00024660F6F
:1034D000771F001C660F771F001C672F702D61700F
:1034E00086E30E94A50060910301661F6627661FA0
:1034F00087E30E94A5006091090170E0617070701F
:1035000088E30E94A5006091090170E076956795B7
:10351000617089E30E94A5006091090170E07695D1
:1035200067957695679561708AE30E94A500609122
:10353000090170E07695679576956795769567951C
:1035400061708BE30E94A5006091090170E07295A3
:1035500062956F7067277F70672761708CE30E94A8
:10356000A5006091090170E0769567957295629566
:103570006F7067277F70672761708DE30E94A500D9
:103580006091090170E00024660F771F001C660F30
:10359000771F001C672F702D61708EE30E94A500BD
:1035A00060910901661F6627661F8FE30E94A500D0
:1035B0006091060170E06170707080E40E94A50067
:1035C0006091060170E076956795617081E40E94D4
:1035D000A5006091060170E07695679576956795F0
:1035E000617082E40E94A5006091060170E076950A
:1035F00067957695679576956795617083E40E94E7
:10360000A5006091060170E0729562956F70672762
:103610007F706727617084E40E94A50060910601B5
:1036200070E076956795729562956F7067277F70E9
:103630006727617085E40E94A5006091060170E033
:103640000024660F771F001C660F771F001C672F72
:10365000702D617086E40E94A50060910601661FCE
:103660006627661F87E40E94A50062B370E0617060
:10367000707088E40E94A50062B370E0769567954B
:10368000617089E40E94A50062B370E07695679549
:103690007695679561708AE40E94A50062B370E038
:1036A00076956795769567957695679561708BE4C5
:1036B0000E94A50062B370E0729562956F706727F3
:1036C0007F70672761708CE40E94A50062B370E090
:1036D00076956795729562956F7067277F706727FB
:1036E00061708DE40E94A50028960FB6F894DEBFA5
:1036F0000FBECDBFCF91DF910895889880910002D1
:103700008823E1F3109200023196E417F50709F0DF
:1037100091CE9FCE8898809100028823E1F3109289
:1037200000023196E417F50709F0FACD08CE889823
:10373000809100028823E1F3109200023196E41791
:10374000F50709F072CD80CD88988091000288231A
:10375000E1F3109200023196E417F50709F0F4CC7A
:1037600002CD8898809100028823E1F31092000234
:103770003196E417F50709F06ACC78CC88988091E7
:1037800000028823E1F3109200023196E417F50756
:1037900009F0DBCBE9CB8898809100028823E1F324
:1037A000109200023196E417F50709F04DCB5BCB80
:1037B0008898809100028823E1F3109200023196EC
:1037C000E417F50709F0C1CACFCA889880910002B2
:1037D0008823E1F3109200023196E417F50709F00F
:1037E00035CA43CA8898809100028823E1F3109279
:1037F00000023196E417F50709F0ABC9B9C98898FA
:10380000809100028823E1F3109200023196E417C0
:10381000F50709F023C931C98898809100028823EF
:10382000E1F3109200023196E417F50709F0A5C8FC
:10383000B3C88898809100028823E1F310920002B7
:103840003196E417F50709F01CC82AC888988091BA
:1038500000028823E1F3109200023196E417F50785
:1038600011F00C94BF130C94CF1388988091000230
:103870008823E1F3109200023196E417F50711F066
:103880000C943E130C944E13889880910002882368
:10389000E1F3109200023196E417F50711F00C9451
:1038A000BF120C94CF128898809100028823E1F314
:1038B000109200023196E417F50711F00C944012B3
:1038C0000C9450128898809100028823E1F31092A2
:1038D00000023196E417F50711F00C94C3110C9413
:1038E000D3118898809100028823E1F3109200029E
:1038F0003196E417F50711F00C9448110C94581107
:103900008898809100028823E1F31092000231969A
:10391000E417F50711F00C94D7100C94E710889871
:10392000809100028823E1F3109200023196E4179F
:10393000F50711F00C945A100C946A108898809135
:1039400000028823E1F3109200023196E417F50794
:1039500011F00C94D80F0C94E80F88988091000215
:103960008823E1F3109200023196E417F50711F075
:103970000C94570F0C94670F88988091000288234D
:10398000E1F3109200023196E417F50711F00C9460
:10399000D80E0C94E80E8898809100028823E1F3F9
:1039A000109200023196E417F50711F00C94590EAD
:1039B0000C94690E8898809100028823E1F310929C
:1039C00000023196E417F50711F00C94DC0D0C940D
:1039D000EC0D8898809100028823E1F31092000298
:1039E0003196E417F50711F00C94610D0C94710DEC
:1039F0008898809100028823E1F3109200023196AA
:103A0000E417F50711F00C94F00C0C94000D889855
:103A1000809100028823E1F3109200023196E417AE
:103A2000F50711F00C94730C0C94830C889880911A
:103A300000028823E1F3109200023196E417F507A3
:103A400011F00C94F10B0C94010C889880910002F9
:103A50008823E1F3109200023196E417F50711F084
:103A60000C94700B0C94800B889880910002882332
:103A7000E1F3109200023196E417F50711F00C946F
:103A8000F10A0C94010B8898809100028823E1F3DD
:103A9000109200023196E417F50711F00C94720AA7
:103AA0000C94820A8898809100028823E1F3109296
:103AB00000023196E417F50711F00C94F5090C9407
:103AC000050A8898809100028823E1F31092000291
:103AD0003196E417F50711F00C947A090C948A09D1
:103AE0008898809100028823E1F3109200023196B9
:103AF000E417F50711F00C9409090C94190988983A
:103B0000809100028823E1F3109200023196E417BD
:103B1000F50711F00C948C080C949C0888988091FF
:103B200000028823E1F3109200023196E417F507B2
:103B300011F00C940A080C941A08889880910002DD
:103B40008823E1F3109200023196E417F50711F093
:103B50000C9489070C949907889880910002882317
:103B6000E1F3109200023196E417F50711F00C947E
:103B70000A070C941A078898809100028823E1F3C1
:103B8000109200023196E417F50711F00C948B06A1
:103B90000C949B068898809100028823E1F3109290
:103BA00000023196E417F50711F00C940E060C9400
:103BB0001E068898809100028823E1F3109200028B
:103BC0003196E417F50711F00C9493050C94A305B6
:103BD0008898809100028823E1F3109200023196C8
:103BE000E417F50711F00C9422050C94320588981F
:103BF000809100028823E1F3109200023196E417CD
:103C0000F50711F00C94A5040C94B50488988091E4
:103C100000028823E1F3109200023196E417F507C1
:103C200011F00C9423040C943304889880910002C2
:103C30008823E1F3109200023196E417F50711F0A2
:103C40000C94A2030C94B2038898809100028823FC
:103C5000E1F3109200023196E417F50711F00C948D
:103C600023030C9433038898809100028823E1F3A6
:103C7000109200023196E417F50711F00C94A4029B
:103C80000C94B4028898809100028823E1F310928A
:103C900000023196E417F50711F00C9427020C94FA
:103CA00037028898809100028823E1F31092000285
:103CB0003196E417F50711F00C94AC010C94BC019B
:103CC000889A809100028823E1F3CBCBDF93CF93D6
:103CD000CDB7DEB728970FB6F894DEBF0FBECDBFC5
:103CE00080B120910402622F70E090E08627972730
:103CF00080FF02C00C940F3C80B190E0862797278C
:103D000081FF02C00C94843B80B190E08627972706
:103D100082FF02C00C94F73A80B190E08627972783
:103D200083FF02C00C94683A80B190E08627972701
:103D300084FF02C00C94D93980B190E08627972780
:103D400085FF02C00C94483980B190E08627972700
:103D500086FF02C00C94B63880B1862787FF02C068
:103D60000C94293883B120910A02622F70E090E010
:103D70008627972780FF02C00C94A83783B190E074
:103D80008627972781FF02C00C941D3783B190E0EE
:103D90008627972782FF02C00C94903683B190E06B
:103DA0008627972783FF02C00C94013683B190E0E9
:103DB0008627972784FF02C00C94723583B190E068
:103DC0008627972785FF02C00C94E13483B190E0E9
:103DD0008627972786FF02C00C944F3483B186272D
:103DE00087FF02C00C94463426B140910802842F0C
:103DF00090E030E08227932780FF02C00C943B3490
:103E000086B1242F30E090E02827392721FF02C017
:103E10000C942F3486B1242F30E090E028273927E6
:103E200022FF02C00C94213486B1242F30E090E0B0
:103E30002827392723FF02C00C94113486B1242F80
:103E400030E090E02827392724FF02C00C94013489
:103E500086B1242F30E090E02827392725FF02C0C3
:103E60000C94EF3386B1242F30E090E028273927D7
:103E700026FF02C00C94DC3386B1482747FF02C0FE
:103E80000C94D33329B140910302842F90E030E0A9
:103E90008227932780FF02C00C94C83389B1242F56
:103EA00030E090E02827392721FF02C00C94BC3372
:103EB00089B1242F30E090E02827392722FF02C063
:103EC0000C94AE3389B1242F30E090E028273927B5
:103ED00023FF02C00C949E3389B1242F30E090E080
:103EE0002827392724FF02C00C948E3389B1242F50
:103EF00030E090E02827392725FF02C00C947C335E
:103F000089B1242F30E090E02827392726FF02C00E
:103F10000C94693389B1482747FF02C00C94603381
:103F20002CB140910102842F90E030E0822793274A
:103F300080FF02C00C9455338CB1242F30E090E008
:103F40002827392721FF02C00C9449338CB1242F34
:103F500030E090E02827392722FF02C00C943B3341
:103F60008CB1242F30E090E02827392723FF02C0AE
:103F70000C942B338CB1242F30E090E02827392784
:103F800024FF02C00C941B338CB1242F30E090E04E
:103F90002827392725FF02C00C9409338CB1242F20
:103FA00030E090E02827392726FF02C00C94F63233
:103FB0008CB1482747FF02C00C94ED3220910001DC
:103FC00040910602842F90E030E08227932780FF03
:103FD00002C00C94E13280910001242F30E090E087
:103FE0002827392721FF02C00C94D4328091000188
:103FF000242F30E090E02827392722FF02C00C94BC
:10400000C53280910001242F30E090E02827392725
:1040100023FF02C00C94B43280910001242F30E0C1
:1040200090E02827392724FF02C00C94A332809106
:104030000001242F30E090E02827392725FF02C017
:104040000C94903280910001242F30E090E02827DA
:10405000392726FF02C00C947C328091000148274A
:1040600047FF02C00C94EE318091030120910902B8
:10407000622F70E090E08627972780FF02C00C94A3
:104080006C318091030190E08627972781FF02C061
:104090000C94E0308091030190E08627972782FFFF
:1040A00002C00C9441308091030190E0862797274D
:1040B00083FF02C00C94A02F8091030190E086271B
:1040C000972784FF02C00C94FF2E8091030190E09B
:1040D0008627972785FF02C00C945C2E80910301F0
:1040E00090E08627972786FF02C00C94B82D809118
:1040F0000301862787FF02C00C94192D80910901C6
:10410000A09107026A2F70E090E08627972780FF32
:1041100002C00C94862C8091090190E08627972795
:1041200081FF02C00C94E92B8091090190E0862761
:10413000972782FF02C00C944A2B8091090190E0DE
:104140008627972783FF02C00C94A92A8091090132
:1041500090E08627972784FF02C00C94982A8091CC
:1041600009012A2F30E090E02827392725FF02C0D7
:104170000C94852A809109012A2F30E090E02827AD
:10418000392726FF02C00C94712A80910901A827C3
:10419000A7FF02C00C94D22980910601209105024C
:1041A000622F70E090E08627972780FF02C00C9472
:1041B0003F298091060190E08627972781FDC2C79D
:1041C0008091060190E08627972782FD1DC7809188
:1041D000060190E08627972783FD76C68091060129
:1041E00090E08627972784FDCFC58091060190E057
:1041F0008627972785FD26C58091060190E08627B2
:10420000972786FD7CC480910601862787FDD9C348
:1042100082B320910202622F70E090E086279727F8
:1042200080FD3EC382B390E08627972781FD9DC223
:1042300082B390E08627972782FDFAC182B390E08F
:104240008627972783FD55C182B390E0862797275D
:1042500084FDB0C082B390E08627972785FD09C012
:1042600028960FB6F894DEBF0FBECDBFCF91DF9179
:10427000089582B390E096958795929582958F7078
:1042800089279F708927817090702EE430E0AC01FF
:10429000429FC001439F900D529F900D1124835B5C
:1042A000282F30E0C901817090708983C9019595EC
:1042B0008795817090708A83C901959587959595AA
:1042C0008795817090708B83C90195958795959599
:1042D000879595958795817090708C83C901959588
:1042E00087959595879595958795959587958170EF
:1042F00090708D83C901959587959595879595952E
:1043000087959595879595958795817090708E8303
:10431000C901082E892F000C881F990B000C881FDB
:10432000991F817090708F83220F232F221F330BD0
:104330003195922F2887809100028823E1F3109213
:1043400000028898809100028823E1F31092000215
:10435000FE013196AE01475F5F4F80818823F1F007
:10436000889A809100028823E1F31092000231962E
:10437000E417F50791F7992311F40C948F3C889872
:10438000809100028823E1F310920002889A8091C4
:1043900000028823E1F31092000262CF8898809196
:1043A00000028823E1F3109200023196E417F5072A
:1043B000A1F6E1CF82B390E0929582958F70892724
:1043C0009F708927817090702EE430E0AC01429F8D
:1043D000C001439F900D529F900D1124845B282FA4
:1043E00030E0C901817090708983C90195958795E6
:1043F000817090708A83C901959587959595879569
:10440000817090708B83C901959587959595879557
:1044100095958795817090708C83C9019595879546
:1044200095958795959587959595879581709070C9
:104430008D83C901959587959595879595958795D0
:104440009595879595958795817090708E83C90114
:10445000082E892F000C881F990B000C881F991FAC
:10446000817090708F83220F232F221F330B319581
:10447000922F2887809100028823E1F31092000296
:104480008898809100028823E1F310920002FE01D7
:104490003196AE01475F5F4F80818823F1F0889AA3
:1044A000809100028823E1F3109200023196E41714
:1044B000F50791F7992311F40C94373D8898809172
:1044C00000028823E1F310920002889A8091000292
:1044D0008823E1F310920002BDCE889880910002FB
:1044E0008823E1F3109200023196E417F507A1F654
:1044F000E1CF82B390E096958795969587959695AE
:104500008795817090702EE430E0AC01429FC0012D
:10451000439F900D529F900D1124855B282F30E012
:10452000C901817090708983C901959587958170C3
:1045300090708A83C9019595879595958795817027
:1045400090708B83C90195958795959587959595DD
:104550008795817090708C83C90195958795959505
:1045600087959595879595958795817090708D83A2
:10457000C901959587959595879595958795959575
:10458000879595958795817090708E83C901082EC7
:10459000892F000C881F990B000C881F991F8170B0
:1045A00090708F83220F232F221F330B3195922F70
:1045B0002887809100028823E1F3109200028898F6
:1045C000809100028823E1F310920002FE013196EF
:1045D000AE01475F5F4F80818823F1F0889A809118
:1045E00000028823E1F3109200023196E417F507E8
:1045F00091F7992311F40C94303D88988091000232
:104600008823E1F310920002889A809100028823A7
:10461000E1F31092000218CE88988091000288235E
:10462000E1F3109200023196E417F507A1F6E1CF0D
:1046300082B390E096958795969587958170907056
:104640002EE430E0AC01429FC001439F900D529F89
:10465000900D1124865B282F30E0C9018170907085
:104660008983C90195958795817090708A83C90166
:104670009595879595958795817090708B83C901E5
:104680009595879595958795959587958170907067
:104690008C83C9019595879595958795959587956F
:1046A00095958795817090708D83C90195958795B3
:1046B00095958795959587959595879595958795E2
:1046C000817090708E83C901082E892F000C881F7D
:1046D000990B000C881F991F817090708F83220F97
:1046E000232F221F330B3195922F288780910002B0
:1046F0008823E1F3109200028898809100028823B9
:10470000E1F310920002FE013196AE01475F5F4F68
:1047100080818823F1F0889A809100028823E1F358
:10472000109200023196E417F50791F7992311F4DE
:104730000C94293D8898809100028823E1F310921F
:104740000002889A809100028823E1F3109200020F
:1047500075CD8898809100028823E1F310920002C1
:104760003196E417F507A1F6E1CF82B390E0969574
:104770008795817090702EE430E0AC01429FC001BB
:10478000439F900D529F900D1124875B282F30E09E
:10479000C901817090708983C90195958795817051
:1047A00090708A83C90195958795959587958170B5
:1047B00090708B83C901959587959595879595956B
:1047C0008795817090708C83C90195958795959593
:1047D00087959595879595958795817090708D8330
:1047E000C901959587959595879595958795959503
:1047F000879595958795817090708E83C901082E55
:10480000892F000C881F990B000C881F991F81703D
:1048100090708F83220F232F221F330B3195922FFD
:104820002887809100028823E1F310920002889883
:10483000809100028823E1F310920002FE0131967C
:10484000AE01475F5F4F80818823F1F0889A8091A5
:1048500000028823E1F3109200023196E417F50775
:1048600091F7992311F40C94223D889880910002CD
:104870008823E1F310920002889A80910002882335
:10488000E1F310920002D4CC889880910002882332
:10489000E1F3109200023196E417F507A1F6E1CF9B
:1048A00022B321708EE490E0289F202D1124285BF4
:1048B00030E0C901817090708983C9019595879511
:1048C000817090708A83C901959587959595879594
:1048D000817090708B83C901959587959595879583
:1048E00095958795817090708C83C9019595879572
:1048F00095958795959587959595879581709070F5
:104900008D83C901959587959595879595958795FB
:104910009595879595958795817090708E83C9013F
:10492000082E892F000C881F990B000C881F991FD7
:10493000817090708F83220F232F221F330B3195AC
:10494000922F2887809100028823E1F310920002C1
:104950008898809100028823E1F310920002FE0102
:104960003196AE01475F5F4F80818823F1F0889ACE
:10497000809100028823E1F3109200023196E4173F
:10498000F50791F7992311F40C941B3D88988091B9
:1049900000028823E1F310920002889A80910002BD
:1049A0008823E1F3109200023DCC889880910002A8
:1049B0008823E1F3109200023196E417F507A1F67F
:1049C000E1CF80910601992787FD90958827990F5F
:1049D000881F99272EE430E0AC01429FC001439F1D
:1049E000900D529F900D1124895B282F30E0C90152
:1049F000817090708983C9019595879581709070B9
:104A00008A83C90195958795959587958170907052
:104A10008B83C901959587959595879595958795EC
:104A2000817090708C83C901959587959595879530
:104A30009595879595958795817090708D83C9011F
:104A4000959587959595879595958795959587954E
:104A500095958795817090708E83C901082E892F56
:104A6000000C881F990B000C881F991F8170907093
:104A70008F83220F232F221F330B3195922F2887EC
:104A8000809100028823E1F31092000288988091BF
:104A900000028823E1F310920002FE013196AE017C
:104AA000475F5F4F80818823F1F0889A80910002F0
:104AB0008823E1F3109200023196E417F50791F78D
:104AC000992311F40C94143D889880910002882356
:104AD000E1F310920002889A809100028823E1F3AA
:104AE0001092000295CB8898809100028823E1F310
:104AF000109200023196E417F507A1F6E1CF8091FC
:104B0000060190E00024880F991F001C880F991F50
:104B1000001C892F902D817090702EE430E0AC0144
:104B2000429FC001439F900D529F900D11248A5BBC
:104B3000282F30E0C901817090708983C901959553
:104B40008795817090708A83C90195958795959511
:104B50008795817090708B83C90195958795959500
:104B6000879595958795817090708C83C9019595EF
:104B70008795959587959595879595958795817056
:104B800090708D83C9019595879595958795959595
:104B900087959595879595958795817090708E836B
:104BA000C901082E892F000C881F990B000C881F43
:104BB000991F817090708F83220F232F221F330B38
:104BC0003195922F2887809100028823E1F310927B
:104BD00000028898809100028823E1F3109200027D
:104BE000FE013196AE01475F5F4F80818823F1F06F
:104BF000889A809100028823E1F310920002319696
:104C0000E417F50791F7992311F40C940D3D88985A
:104C1000809100028823E1F310920002889A80912B
:104C200000028823E1F310920002EDCA8898809177
:104C300000028823E1F3109200023196E417F50791
:104C4000A1F6E1CF8091060190E096958795929527
:104C500082958F7089279F708927817090702EE4CC
:104C600030E0AC01429FC001439F900D529F900DD8
:104C700011248B5B282F30E0C901817090708983EB
:104C8000C90195958795817090708A83C901959522
:104C9000879595958795817090708B83C9019595BF
:104CA00087959595879595958795817090708C835C
:104CB000C90195958795959587959595879595952E
:104CC0008795817090708D83C9019595879595958D
:104CD00087959595879595958795959587958170F5
:104CE00090708E83C901082E892F000C881F990BA4
:104CF000000C881F991F817090708F83220F232FC3
:104D0000221F330B3195922F288780910002882330
:104D1000E1F3109200028898809100028823E1F369
:104D200010920002FE013196AE01475F5F4F808115
:104D30008823F1F0889A809100028823E1F3109291
:104D400000023196E417F50791F7992311F40C94BA
:104D5000063D8898809100028823E1F310920002BA
:104D6000889A809100028823E1F31092000244CADD
:104D70008898809100028823E1F310920002319616
:104D8000E417F507A1F6E1CF8091060190E0929536
:104D900082958F7089279F708927817090702EE48B
:104DA00030E0AC01429FC001439F900D529F900D97
:104DB00011248C5B282F30E0C901817090708983A9
:104DC000C90195958795817090708A83C9019595E1
:104DD000879595958795817090708B83C90195957E
:104DE00087959595879595958795817090708C831B
:104DF000C9019595879595958795959587959595ED
:104E00008795817090708D83C9019595879595954B
:104E100087959595879595958795959587958170B3
:104E200090708E83C901082E892F000C881F990B62
:104E3000000C881F991F817090708F83220F232F81
:104E4000221F330B3195922F2887809100028823EF
:104E5000E1F3109200028898809100028823E1F328
:104E600010920002FE013196AE01475F5F4F8081D4
:104E70008823F1F0889A809100028823E1F3109250
:104E800000023196E417F50791F7992311F40C9479
:104E9000FF3C8898809100028823E1F31092000281
:104EA000889A809100028823E1F3109200029DC944
:104EB0008898809100028823E1F3109200023196D5
:104EC000E417F507A1F6E1CF8091060190E09695F1
:104ED00087959695879596958795817090702EE425
:104EE00030E0AC01429FC001439F900D529F900D56
:104EF00011248D5B282F30E0C90181709070898367
:104F0000C90195958795817090708A83C90195959F
:104F1000879595958795817090708B83C90195953C
:104F200087959595879595958795817090708C83D9
:104F3000C9019595879595958795959587959595AB
:104F40008795817090708D83C9019595879595950A
:104F50008795959587959595879595958795817072
:104F600090708E83C901082E892F000C881F990B21
:104F7000000C881F991F817090708F83220F232F40
:104F8000221F330B3195922F2887809100028823AE
:104F9000E1F3109200028898809100028823E1F3E7
:104FA00010920002FE013196AE01475F5F4F808193
:104FB0008823F1F0889A809100028823E1F310920F
:104FC00000023196E417F50791F7992311F40C9438
:104FD000F83C8898809100028823E1F31092000247
:104FE000889A809100028823E1F310920002F6C8AB
:104FF0008898809100028823E1F310920002319694
:10500000E417F507A1F6E1CF8091060190E09695AF
:10501000879596958795817090702EE430E0AC016D
:10502000429FC001439F900D529F900D11248E5BB3
:10503000282F30E0C901817090708983C90195954E
:105040008795817090708A83C9019595879595950C
:105050008795817090708B83C901959587959595FB
:10506000879595958795817090708C83C9019595EA
:105070008795959587959595879595958795817051
:1050800090708D83C9019595879595958795959590
:1050900087959595879595958795817090708E8366
:1050A000C901082E892F000C881F990B000C881F3E
:1050B000991F817090708F83220F232F221F330B33
:1050C0003195922F2887809100028823E1F3109276
:1050D00000028898809100028823E1F31092000278
:1050E000FE013196AE01475F5F4F80818823F1F06A
:1050F000889A809100028823E1F310920002319691
:10510000E417F50791F7992311F40C94F13C889872
:10511000809100028823E1F310920002889A809126
:1051200000028823E1F31092000251C88898809110
:1051300000028823E1F3109200023196E417F5078C
:10514000A1F6E1CF8091060190E096958795817058
:1051500090702EE430E0AC01429FC001439F900D5F
:10516000529F900D11248F5B282F30E0C901817070
:1051700090708983C90195958795817090708A8315
:10518000C9019595879595958795817090708B83CA
:10519000C901959587959595879595958795817082
:1051A00090708C83C9019595879595958795959570
:1051B000879595958795817090708D83C901959598
:1051C00087959595879595958795959587959595C7
:1051D0008795817090708E83C901082E892F000CED
:1051E000881F990B000C881F991F817090708F8306
:1051F000220F232F221F330B3195922F2887809166
:1052000000028823E1F31092000288988091000246
:105210008823E1F310920002FE013196AE01475F50
:105220005F4F80818823F9F0889A8091000288235B
:10523000E1F3109200023196E417F50791F79923F4
:1052400011F40C94EA3C8898809100028823E1F3E1
:1052500010920002889A809100028823E1F3109254
:1052600000020C94E0208898809100028823E1F3EA
:10527000109200023196E417F50799F6E0CF2091DD
:10528000060121708EE490E0289F202D1124205CDF
:1052900030E0C901817090708983C9019595879527
:1052A000817090708A83C9019595879595958795AA
:1052B000817090708B83C901959587959595879599
:1052C00095958795817090708C83C9019595879588
:1052D000959587959595879595958795817090700B
:1052E0008D83C90195958795959587959595879512
:1052F0009595879595958795817090708E83C90156
:10530000082E892F000C881F990B000C881F991FED
:10531000817090708F83220F232F221F330B3195C2
:10532000922F2887809100028823E1F310920002D7
:105330008898809100028823E1F310920002FE0118
:105340003196AE01475F5F4F80818823F9F0889ADC
:10535000809100028823E1F3109200023196E41755
:10536000F50791F7992311F40C94E33C8898809108
:1053700000028823E1F310920002889A80910002D3
:105380008823E1F3109200020C94D9208898809130
:1053900000028823E1F3109200023196E417F5072A
:1053A00099F6E0CF80910901992787FD909588278C
:1053B000990F881F99272EE430E0AC01429FC0016D
:1053C000439F900D529F900D1124815C282F30E057
:1053D000C901817090708983C90195958795817005
:1053E00090708A83C9019595879595958795817069
:1053F00090708B83C901959587959595879595951F
:105400008795817090708C83C90195958795959546
:1054100087959595879595958795817090708D83E3
:10542000C9019595879595958795959587959595B6
:10543000879595958795817090708E83C901082E08
:10544000892F000C881F990B000C881F991F8170F1
:1054500090708F83220F232F221F330B3195922FB1
:105460002887809100028823E1F310920002889837
:10547000809100028823E1F310920002FE01319630
:10548000AE01475F5F4F80818823F9F0889A809151
:1054900000028823E1F3109200023196E417F50729
:1054A00091F7992311F40C94DC3C889880910002C8
:1054B0008823E1F310920002889A809100028823E9
:1054C000E1F3109200020C94CC20889880910002A5
:1054D0008823E1F3109200023196E417F50799F65C
:1054E000E0CF6091090170E00024660F771F001C77
:1054F000660F771F001C672F702D61708EE30E946E
:10550000A500A09107020C94C5206091090170E0EC
:1055100076956795729562956F7067277F7067279C
:1055200061708DE30E94A500A09107020C94BA203F
:105530006091090170E0729562956F7067277F70C6
:10554000672761708CE30E94A500A09107020C946C
:10555000AF208091090190E0969587959695879563
:1055600096958795817090702EE430E0AC01429F53
:10557000C001439F900D529F900D1124855C282FF0
:1055800030E0C901817090708983C9019595879534
:10559000817090708A83C9019595879595958795B7
:1055A000817090708B83C9019595879595958795A6
:1055B00095958795817090708C83C9019595879595
:1055C0009595879595958795959587958170907018
:1055D0008D83C9019595879595958795959587951F
:1055E0009595879595958795817090708E83C90163
:1055F000082E892F000C881F990B000C881F991FFB
:10560000817090708F83220F232F221F330B3195CF
:10561000922F2887809100028823E1F310920002E4
:105620008898809100028823E1F310920002FE0125
:105630003196AE01475F5F4F80818823F9F0889AE9
:10564000809100028823E1F3109200023196E41762
:10565000F50791F7992311F40C94D53C8898809123
:1056600000028823E1F310920002889A80910002E0
:105670008823E1F3109200020C94A6208898809170
:1056800000028823E1F3109200023196E417F50737
:1056900099F6E0CF8091090190E0969587959695CF
:1056A0008795817090702EE430E0AC01429FC0017C
:1056B000439F900D529F900D1124865C282F30E05F
:1056C000C901817090708983C90195958795817012
:1056D00090708A83C9019595879595958795817076
:1056E00090708B83C901959587959595879595952C
:1056F0008795817090708C83C90195958795959554
:1057000087959595879595958795817090708D83F0
:10571000C9019595879595958795959587959595C3
:10572000879595958795817090708E83C901082E15
:10573000892F000C881F990B000C881F991F8170FE
:1057400090708F83220F232F221F330B3195922FBE
:105750002887809100028823E1F310920002889844
:10576000809100028823E1F310920002FE0131963D
:10577000AE01475F5F4F80818823F9F0889A80915E
:1057800000028823E1F3109200023196E417F50736
:1057900091F7992311F40C94CE3C889880910002E3
:1057A0008823E1F310920002889A809100028823F6
:1057B000E1F3109200020C949D20889880910002E1
:1057C0008823E1F3109200023196E417F50799F669
:1057D000E0CF8091090190E0969587958170907057
:1057E0002EE430E0AC01429FC001439F900D529FD8
:1057F000900D1124875C282F30E0C90181709070D2
:105800008983C90195958795817090708A83C901B4
:105810009595879595958795817090708B83C90133
:1058200095958795959587959595879581709070B5
:105830008C83C901959587959595879595958795BD
:1058400095958795817090708D83C9019595879501
:105850009595879595958795959587959595879530
:10586000817090708E83C901082E892F000C881FCB
:10587000990B000C881F991F817090708F83220FE5
:10588000232F221F330B3195922F288780910002FE
:105890008823E1F310920002889880910002882307
:1058A000E1F310920002FE013196AE01475F5F4FB7
:1058B00080818823F9F0889A809100028823E1F39F
:1058C000109200023196E417F50791F7992311F42D
:1058D0000C94C73C8898809100028823E1F31092D1
:1058E0000002889A809100028823E1F3109200025E
:1058F0000C9494208898809100028823E1F3109200
:1059000000023196E417F50799F6E0CF20910901DE
:1059100021708EE490E0289F202D1124285C30E037
:10592000C901817090708983C901959587958170AF
:1059300090708A83C9019595879595958795817013
:1059400090708B83C90195958795959587959595C9
:105950008795817090708C83C901959587959595F1
:1059600087959595879595958795817090708D838E
:10597000C901959587959595879595958795959561
:10598000879595958795817090708E83C901082EB3
:10599000892F000C881F990B000C881F991F81709C
:1059A00090708F83220F232F221F330B3195922F5C
:1059B0002887809100028823E1F3109200028898E2
:1059C000809100028823E1F310920002FE013196DB
:1059D000AE01475F5F4F80818823F9F0889A8091FC
:1059E00000028823E1F3109200023196E417F507D4
:1059F00091F7992311F40C94C03C8898809100028F
:105A00008823E1F310920002889A80910002882393
:105A1000E1F3109200020C948B2088988091000290
:105A20008823E1F3109200023196E417F50799F606
:105A3000E0CF80910301992787FD90958827990FE2
:105A4000881F99272EE430E0AC01429FC001439F9C
:105A5000900D529F900D1124895C282F30E0C901D0
:105A6000817090708983C901959587958170907038
:105A70008A83C901959587959595879581709070D2
:105A80008B83C9019595879595958795959587956C
:105A9000817090708C83C9019595879595958795B0
:105AA0009595879595958795817090708D83C9019F
:105AB00095958795959587959595879595958795CE
:105AC00095958795817090708E83C901082E892FD6
:105AD000000C881F990B000C881F991F8170907013
