:100000000C9472000C9494000C9494000C94940042
:100010000C9494000C9494000C9494000C94940010
:100020000C9494000C9494000C9494000C94940000
:100030000C9494000C9494000C9494000C949400F0
:100040000C9494000C9494000C9494000C949400E0
:100050000C9494000C9494000C9494000C949400D0
:100060000C9494000C9494000C9494000C949400C0
:100070000C9494000C9494000C9494000C949400B0
:100080000C9494000C9494000C9494000C949400A0
:100090000C9494000C9494000C9494000C94940090
:1000A0000C9494000C9494000C9494000C94940080
:1000B0000C9494000C9494000C9494000C94940070
:1000C0000C9494000C9494000C9494000C94940060
:1000D0000C9494000C9494000C9494000C94940050
:1000E0000C94940011241FBECFEFD1E2DEBFCDBF30
:1000F00000E00CBF12E0A0E0B2E0E6EAF5E000E0CC
:100100000BBF02C007900D92A030B107D9F71BBEFC
:1001100012E0A0E0B2E001C01D92A030B107E1F70B
:100120000E9496000C94D1020C940000DF93CF93B0
:10013000CDB7DEB76C970FB6F894DEBF0FBECDBF5C
:10014000E0EBF0E01082E1EBF0E01082E2EBF0E0B7
:100150001082E3EBF0E087EC8083A0EBB0E0E0EB13
:10016000F0E0808182608C93A1EBB0E0E1EBF0E005
:10017000808182608C93A0E7B0E0E0E7F0E08081CE
:1001800082608C93A4E2B0E0E4E2F0E080818160E0
:100190008C93A5E2B0E0E5E2F0E0808181608C9391
:1001A00080E090E0AAEFB3E4898F9A8FAB8FBC8F89
:1001B000698D7A8D8B8D9C8D20E030E04AE755E487
:1001C0000E943E02DC01CB018D8B9E8BAF8BB88FE2
:1001D0006D897E898F89988D20E030E040E85FE36B
:1001E0000E94BC0188232CF481E090E09C8B8B8BD7
:1001F0003FC06D897E898F89988D20E03FEF4FE762
:1002000057E40E943A0218164CF5698D7A8D8B8D51
:100210009C8D20E030E040E251E40E943E02DC018F
:10022000CB01BC01CD010E94C001DC01CB019C8B44
:100230008B8B0FC080E991E09A8B898B89899A8991
:100240000197F1F79A8B898B8B899C8901979C8BFD
:100250008B8B8B899C89009769F714C06D897E8987
:100260008F89988D0E94C001DC01CB019C8B8B8B08
:100270008B899C89988B8F878F8598890197F1F757
:10028000988B8F87A5E2B0E0E5E2F0E080818E7F79
:100290008C9380E090E0AAEFB3E48B879C87AD87D6
:1002A000BE876B857C858D859E8520E030E04AE7A2
:1002B00055E40E943E02DC01CB018F839887A98719
:1002C000BA876F81788589859A8520E030E040E89B
:1002D0005FE30E94BC0188232CF481E090E09E83C0
:1002E0008D833FC06F81788589859A8520E03FEFB7
:1002F0004FE757E40E943A0218164CF56B857C854F
:100300008D859E8520E030E040E251E40E943E026F
:10031000DC01CB01BC01CD010E94C001DC01CB019D
:100320009E838D830FC080E991E09C838B838B81BA
:100330009C810197F1F79C838B838D819E8101972E
:100340009E838D838D819E81009769F722CF6F8177
:10035000788589859A850E94C001DC01CB019E8346
:100360008D838D819E819A83898389819A8101976A
:10037000F1F79A8389830DCF2FD008F481E0089597
:1003800057D088F09F5790F0B92F9927B751A0F018
:10039000D1F0660F771F881F991F1AF0BA95C9F719
:1003A00012C0B13081F05ED0B1E008955BC0672F1C
:1003B000782F8827B85F39F0B93FCCF386957795C9
:1003C0006795B395D9F73EF49095809570956195B2
:1003D0007F4F8F4F9F4F0895990F0008550FAA0B1D
:1003E000E0E8FEEF16161706E807F907C0F0121648
:1003F0001306E407F50798F0621B730B840B950B4B
:1004000039F40A2661F0232B242B252B21F408959F
:100410000A2609F4A140A6958FEF811D811D08953C
:1004200057FD9058440F551F59F05F3F71F04795A5
:10043000880F97FB991F61F09F3F79F0879508958A
:10044000121613061406551FF2CF4695F1DF08C0A9
:10045000161617061806991FF1CF869571056105C6
:1004600008940895E894BB2766277727862F972F4F
:1004700097F90895B1DF08F48FEF08950AD080C08E
:1004800071D028F076D018F0952309F062C067C0CB
:10049000EACFC6DFA8F39923D9F35523C9F3950F03
:1004A00050E0551FAA27EE27FF27BB2700240894FA
:1004B000679520F4E20FF31FB41F0A1E220F331FAB
:1004C000441FAA1F6695A9F7779530F4F30FB41F60
:1004D0000A1E121E08F46395330F441FAA1F221F21
:1004E000769599F7879520F4B40F0A1E121E631FA4
:1004F000440FAA1F221F331F8695A9F7862F712D3F
:10050000602D11249F5750408AF0E1F088234AF073
:10051000EE0FFF1FBB1F661F771F881F91505040B3
:10052000A9F79E3F510570F014C09DCF5F3FECF3DB
:10053000983EDCF3869577956795B795F795E7959F
:100540009F5FC1F7FE2B880F911D9695879597F9B0
:10055000089597F99F6780E870E060E008959FEF45
:1005600080EC089500240A9416161706180609064A
:10057000089500240A941216130614060506089519
:10058000092E0394000C11F4882352F0BB0F40F4A1
:10059000BF2B11F460FF04C06F5F7F4F8F4F9F4FE1
:0605A0000895F894FFCF5E
:00000001FF
